:02000000872C4B
:1000060083160313981809280000032883125F0833
:040016009900080045
:10001A00710DF80DF90D7408F8027508031C750FB7
:10002A00F902F00DF10D0F30FC00710DF80DF90D0C
:10003A007408701C2628F8027508031C750FF9024B
:10004A002B28F80775080318750FF907F00DF10D3D
:10005A00FC0B1A28701837287408F8077508031853
:08006A00750FF9070000080002
:1000720083120313F8010830FC00700DF80D7408A8
:10008200F80203184628F8070310F00DFC0B3E286F
:02009200080064
:100094006B28C03083120313F0009528F930F00068
:1000A4009528A430F0009528B030F00095289930B8
:1000B400F00095289230F00095288230F0009528C1
:1000C400F830F00095288030F00095289030F0004A
:1000D4009528831203135C08003A03194B285C0823
:1000E400013A031950285C08023A031953285C08A2
:1000F400033A031956285C08043A031959285C0882
:10010400053A03195C285C08063A03195F285C0861
:10011400073A031962285C08083A031965285C0841
:08012400093A031968280800DC
:0E012C000030831203138C1A0130F00008001B
:10013A00831203137408003A031DAC287508003AA9
:10014A00031DAC28FF30F0007F30F100052983122F
:10015A000313FD01F901F801710870040319003451
:10016A0071087506FA00FA1BFD09FB01F51FC22882
:10017A00F409F509F40A0319F50AF11FC928F00967
:10018A00F109F00A0319F10A71087504FA00FA1B59
:10019A00DE280D207B18F128FD1F0034F009F10933
:1001AA00F00A0319F10AF809F909F80A0319F90A10
:1001BA000034F51FED28F11BE9287108F9007008D1
:1001CA00F800F101F001D128F101F001F00A003440
:1001DA00F109F009FB0ACE28F80A0319F90A74088A
:1001EA007802031DD12875087902031DD128F90167
:1001FA00F801F00A0319F10AF11FD1280000FF34AF
:02020A000800EA
:10020C00831203131A08F100981C0E2918121816E1
:06021C007108F00008006B
:10022200831203135C08393C031C1E2930305C0224
:0E023200031C1E290130F0001F29F0010800F6
:1002400083120313DE015C0884000008DD005D08F2
:10025000003A031935295D08DF000320DE0A5E0835
:0C0260005C0784000008DD00272908006E
:10026C0083120313FB01FA01F9018030F800F10C41
:10027C00F00C031C4A297408F90775080318750F4C
:10028C00FA070318FB0A0310F01F52297408FA0727
:10029C0075080318750FFB07FB0CFA0CF90CF80C1E
:1002AC00031C3D297B08F3007A08F2007908F10061
:0602BC007808F0000800C4
:0E02C2008312031352088A00510882000800BC
:1002D000831203135508D00001305002031C042A76
:1002E0000714871007118711071287162430DC00C6
:1002F00020211430CF0001304F02031C022A57087E
:100300005007F00000300318013E5807F1000A3092
:10031000F4000030F5009D207808F0007908F10025
:100320007008DC004A20831203137008880005144B
:100330004130FC00EE30FD00FD0B9C29FC0B9C299C
:100340000000051057085007F00000300318013E68
:100350005807F1000A30F4000030F5009D207008C5
:10036000DC004A2083120313700888008514413092
:10037000FC00EE30FD00FD0BBB29FC0BBB2900008F
:1003800085100A30F4005008F00039207808F00099
:100390007008DC004A2083120313700886000515DC
:1003A0004130FC00EE30FD00FD0BD429FC0BD429BC
:1003B000000005110A30F4005008F00039207008E0
:1003C000DC004A2083120313700886008515413033
:1003D000FC00EE30FD00FD0BEB29FC0BEB290000CF
:1003E00085114130FC00EE30FD00FD0BF529FC0BC2
:1003F000F529000096207008013A031D002A042AFE
:0A040000CF037B29D0036C2908000C
:10040A0083120313550884000008D600D701003070
:10041A00D70000305706031D142A20305606031948
:10042A001F2A00305706031D1C2A093056060319D5
:10043A001F2A212AD50A052AD801D901DA01DB01A6
:10044A0000305706031D2B2A2D305606031D322A6B
:10045A00DA0A0319DB0AD50A3B2A00305706031DBC
:10046A00382A2B305606031D3B2AD50A5508840024
:10047A000008D600D7010030D7005608DC00112149
:10048A0070080319632A5808F0005908F1000A3065
:10049A00F4000030F500362130305602F200003008
:1004AA00031C013E5702F30072087007D800710856
:1004BA000318013E7307D900D50A3B2A5A085B0480
:1004CA000319702A5808003CF0005908031C013E21
:1004DA00F101F102742A5808F0005908F1000800E5
:1004EA00831203135508D00001305002031CFF2A5F
:1004FA000714871007118711071687122A30DC00A4
:10050A0020211430CF0001304F02031CFD2A0A308B
:10051A00F4005008F00039207808F0007008DC0078
:10052A004A20831203137008880005144130FC0026
:10053A00EE30FD00FD0B9F2AFC0B9F2A00000510E0
:10054A000A30F4005008F00039207008DC004A2014
:10055A00831203137008880085144130FC00EE30C2
:10056A00FD00FD0BB62AFC0BB62A000085100A30E6
:10057A00F4005008F00039207808F0007008DC0018
:10058A004A20831203137008860005154130FC00C7
:10059A00EE30FD00FD0BCF2AFC0BCF2A000005111F
:1005AA000A30F4005008F00039207008DC004A20B4
:1005BA00831203137008860085154130FC00EE3063
:1005CA00FD00FD0BE62AFC0BE62A000085114130EE
:1005DA00FC00EE30FD00FD0BF02AFC0BF02A0000B7
:1005EA0096207008013A031DFB2AFF2ACF03882AA6
:0605FA00D003792A08007D
:10060000831203135508D00001305002031C9C2BA9
:100610000710871007158715071287122E30DC0088
:1006200020211430CF0001304F02031C9A2B5708B1
:100630005007F00000300318013E5807F1000A305F
:10064000F4000030F5009D207808F0007908F100F2
:100650007008DC004A208312031370088800051418
:100660004130FC00EE30FD00FD0B342BFC0B342B35
:100670000000051057085007F00000300318013E35
:100680005807F1000A30F4000030F5009D20700892
:10069000DC004A208312031370088800851441305F
:1006A000FC00EE30FD00FD0B532BFC0B532B000028
:1006B00085100A30F4005008F00039207808F00066
:1006C0007008DC004A2083120313700886000515A9
:1006D0004130FC00EE30FD00FD0B6C2BFC0B6C2B55
:1006E000000005110A30F4005008F00039207008AD
:1006F000DC004A2083120313700886008515413000
:10070000FC00EE30FD00FD0B832BFC0B832B000067
:1007100085114130FC00EE30FD00FD0B8D2BFC0BF4
:100720008D2B000096207008013A031D982B9C2BFE
:0A073000CF03132BD003042B0800A5
:10073A0083120313D901DA0157080319DC2B57086E
:10074A00FF3A0319A92BD70396207008003A031D14
:10075A00AF2BA92B06217008D80059085507840029
:10076A0070088000D90A5A085607840000085806FB
:10077A00031DC12BDA0AC92BDA01560884000008C6
:10078A005806031DC92BDA0A5A08560784000008BE
:10079A00003A031DDB2B5A085902F000F101031C31
:1007AA00F1037008550784008001DF2BA12B55083F
:0607BA008400800108002C
:1007C00083160313981690308312980083168717A8
:1007D000071383128C1EEF2B1A08F000E92B080078
:1007E000831203135508D00001305002031C7A2CE9
:1007F0000710871407118715071287122030DC00B5
:1008000020211430CF0001304F02031C782C0A3015
:10081000F4005008F00039207808F0007008DC007F
:100820004A20831203137008880005144130FC002D
:10083000EE30FD00FD0B1A2CFC0B1A2C00000510ED
:100840000A30F4005008F00039207008DC004A201B
:10085000831203137008880085144130FC00EE30C9
:10086000FD00FD0B312CFC0B312C000085100A30F3
:10087000F4005008F00039207808F0007008DC001F
:100880004A20831203137008860005154130FC00CE
:10089000EE30FD00FD0B4A2CFC0B4A2C000005112C
:1008A0000A30F4005008F00039207008DC004A20BB
:1008B000831203137008860085154130FC00EE306A
:1008C000FD00FD0B612CFC0B612C000085114130FB
:1008D000FC00EE30FD00FD0B6B2CFC0B6B2C0000C4
:1008E00096207008013A031D762C7A2CCF03032C36
:0608F000D003F42B080008
:1008F60061218A110A128000840AD10A0319D20AD8
:08090600F003031D7B2C080027
:10090E00323083120313A0003130A1002630A20032
:10091E00A3013130A4003330A5002630A600A70174
:10092E002130A800A9013130AA003230AB002630A8
:10093E00AC00AD013330AE003130AF002630B00028
:10094E00B101850186018801831685018601880122
:10095E00C030870083120510851005118511813076
:10096E00831699001815E0230330FB008A30FC0033
:10097E005530FD00FD0BC12CFC0BC12CFB0BC12C0B
:10098E00000000004630D5002830D6000730D700D2
:10099E009D234608DF0003204708DF000320480898
:1009AE00DF0003204908DF0003204A08DF00032090
:1009BE004B08DF0003204608CE004708CD0048084C
:1009CE00C1004908C0004A08C2004B08C500CF014B
:1009DE00CE01C201C101C301C6014130FC00EE309F
:1009EE00FD00FD0BF82CFC0BF82C00004E30D50052
:1009FE0005227008C3007108C4004130FC00EE30BF
:100A0E00FD00FD0B082DFC0B082D00004D30D50010
:100A1E0005227008BE007108BF004130FC00EE30A8
:100A2E00FD00FD0B182DFC0B182D00004130D500DC
:100A3E0005227008B6007108B7004130FC00EE3098
:100A4E00FD00FD0B282DFC0B282D00004030D5009D
:100A5E0005227008B8007108B9004130FC00EE3074
:100A6E00FD00FD0B382DFC0B382D00004230D5005B
:100A7E0005227008B4007108B5004130FC00EE305C
:100A8E00FD00FD0B482DFC0B482D00004530D50018
:100A9E0005227008B2007108B3004130FC00EE3040
:100AAE00FD00FD0B582DFC0B582D0000BC01BD01A7
:100ABE003608F0003708F1000A30F4000030F50077
:100ACE00362138087007BA0071080318013E39073D
:100ADE00BB004130FC00EE30FD00FD0B742DFC0B15
:100AEE00742D00003408F0003508F1000A30F400CF
:100AFE000030F500362132087007D3007108031854
:100B0E00013E3307D4004130FC00EE30FD00FD0BFA
:100B1E008E2DFC0B8E2D00005308D5005408D600E8
:100B2E003A08D7003B08D80068213A08D5003B08A0
:100B3E00D60075225308D5005408D6003A08D700BF
:100B4E003B08D80000233A08D5003B08D600F02316
:040B5E00C92CB02DC1
:02400E004A2F37
:00000001FF
